:020000040800F2
:20300000008000205134000825350008293500082D35000831350008353500081C3000081D
:20302000203000082430000828300008393500083D35000834300008413500082135000844
:203040004030000844300008483000084C3000085030000854300008583000085C30000840
:203060006030000864300008683000086C3000087030000874300008783000087C30000820
:203080008030000884300008883000088C3000089030000894300008983000089C30000800
:2030A000A0300008A4300008A8300008AC300008B0300008B4300008B8300008BC300008E0
:2030C000C0300008C4300008C8300008CC300008D0300008D4300008D8300008DC300008C0
:2030E000E0300008E4300008E8300008EC300008F0300008F4300008F8300008FC300008A0
:203100000031000804310008083100080C3100081031000814310008183100081C31000877
:203120002031000824310008283100082C3100083031000834310008383100083C31000857
:203140004031000844310008483100084C3100085031000854310008583100085C31000837
:203160006031000864310008683100086C3100087031000874310008783100087C31000817
:20318000803100088431000800A24A04000000000008004800080048000800480008004889
:2031A00001000200040008000000080000000800000008000000080041F20001C4F20201F3
:2031C000086850F00100086041F20402C4F20202106810F47F001060086830F0847030F4D0
:2031E00080300860086830F480200860106830F4FE00106041F22C00C4F20200036833F06C
:203200000F03036041F23000C4F20200036833F0F02333F073030360002041F20803C4F26D
:20322000020318604DF8080D0190086850F480300860086810F4003001900098401C0090A1
:20324000019818B90098B0F5A06FF2D1086810F4003018BF01200190019801282AD11220D9
:2032600042F20003C4F2020318601068106010681060106850F480601060106830F47C10E0
:203280001060106850F4E8101060086850F080700860086810F0007FFBD0106830F003003D
:2032A0001060106850F002001060106810F00C000828FAD15FF000605FF0E021C1F8080D28
:2032C00002B0704730B502460B460025012010FA05F118680840884237D15868012801D06D
:2032E00002281BD194685FEA4501032010FA01F084439460986810FA01F190680843906025
:20330000012010FA05F1908888439080D86880B210FA05F081B29088084390805FEA450EE6
:203320000320116810FA0EF081431160596811FA0EF4116821431160D1688143D1601869E9
:1233400010FA0EF1D0680843D0606D1C102DBDD330BD7C
:2033540000B5002000F02EF8012000F02BF8022000F028F8032000F025F800F0D1F81048C7
:2033740000685FF47A71B0FBF1F030F07F40411E5FF0E0204161F02180F8231D002181610C
:203394000721016100F084F85FF4FA7000F0B0F800F07EF85FF4967000F0AAF8F2E7C0469E
:2033B4000000002070B585B00546114C04F1180050F82500012100F079F804F1100636F8A1
:2033D40015000090012001900020039004900320029004F1000454F825006946FFF768FF10
:2033F40054F8250036F81510816105B070BDC0460800002010B5104C54F8043B012B54F8DF
:20341400040B54F8041B54F8042B06D1521E11F9013B00F8013BF9D1EEE7022B05D100211F
:20343400521E00F8011BFAD1E6E7032B18BF10BDFFF786FFE0E710BD48350008DFF824F00B
:20345400DFF824D0FFF7AEFEFFF7D4FF07485FF0E021C1F8080D00200146FFF771FF00F0F8
:2034740067F87047553400080080002000300008064901F1000252F8202001F1100131F8C0
:20349400100032F8143F4340138070470800002000B50020FFF7ECFF0120FFF7E9FF0220BF
:2034B400FFF7E6FF0320FFF7E3FF00BD41F21402C4F2020211B11168014301E011688143C5
:2034D4001160704704480168002908BF70470168491E01607047C0460400002031F0604180
:2034F40031F07F0108435FF0E021C1F8080D70470249086008680028FCD170470400002004
:123514005FF000605FF44051FFF7E8BFFFF7DABF70472F
:02352800FEE7BC
:02352C00FEE7B8
:02353000FEE7B4
:02353400FEE7B0
:023538007047DA
:02353C007047D6
:023540007047D2
:02354400FEE7A0
:20354800010000000000002088310008300000000000000000000000000000000000000051
:04000005080034516A
:00000001FF
