:020000040800F2
:20300000004000203D340008193500081D3500082135000825350008293500081C300008AD
:203020002030000824300008283000082D3500083135000834300008353500081535000874
:203040004030000844300008483000084C3000085030000854300008583000085C30000840
:203060006030000864300008683000086C3000087030000874300008783000087C30000820
:203080008030000884300008883000088C3000089030000894300008983000089C30000800
:2030A000A0300008A4300008A8300008AC300008B0300008B4300008B8300008BC300008E0
:2030C000C0300008C4300008C8300008CC300008D0300008D4300008D8300008DC300008C0
:2030E000E0300008E4300008E8300008EC300008F0300008F4300008F8300008FC300008A0
:203100000031000804310008083100080C3100081031000814310008183100081C31000877
:203120002031000824310008283100082C3100083031000834310008383100083C31000857
:203140004031000844310008483100084C310008000000000048E801000C0240000C0240A6
:20316000000C0240000C024001000200100020000800000008000000080000000800000060
:2031800043F60002C4F20202106843F6080350F480701060C4F202034CF20C01C8F6FF0116
:2031A00018680840186043F60C01C4F20201106830F0011030F088501060106830F4802083
:2031C0001060186830F47D001860002008604DF8080D0190106850F480301060106810F41B
:2031E000003001900098401C0090019818B90098B0F5A06FF2D1106810F4003018BF01206D
:2032000001900198012849D143F60040C4F20200016851F004010160016851F002010160F2
:20322000016851F00101016043F62400C4F20200016851F0805101605FF4006047F20001A3
:20324000C4F20001086047F20400C4F20000006810F0100FF7D1186818601868186018689D
:203260001860186830F47D001860186850F411001860106850F080701060106810F0007FE1
:20328000FBD0186830F003001860186850F003001860186810F00C000C28FAD15FF00060D3
:2032A0005FF0E021C1F8080D02B0704730B502460B460024012010FA04F118680840884233
:2032C00039D15FEA440E032010FA0EF06FEA0005106828401060586810FA0EF110680843E4
:2032E00010605868012801D0022816D1906828409060986810FA0EF19068084390600120E6
:2033000010FA04F1908888439080D86880B210FA04F081B29088084390805FEA44010320F4
:1E33200010FA01F1D0688843D060186910FA0EF1D0680843D060641C102CBBD330BDEC
:2033400000B5002000F02EF8012000F02BF8022000F028F8032000F025F800F0D1F81048DB
:2033600000685FF47A71B0FBF1F030F07F40411E5FF0E0204161F02180F8231D0021816120
:203380000721016100F084F85FF4FA7000F0B0F800F07EF85FF4967000F0AAF8F2E7C046B2
:2033A0000400002070B585B00546114C04F1180050F82500012100F079F804F1100636F8B1
:2033C000150000900120019000200390049000F09DF804F1000454F825006946FFF766FF56
:2033E00054F8250036F81510018305B070BDC0460800002010B5104C54F8043B012B54F851
:20340000040B54F8041B54F8042B06D1521E11F9013B00F8013BF9D1EEE7022B05D1002133
:20342000521E00F8011BFAD1E6E7032B18BF10BDFFF786FFE0E710BD3C350008DFF824F02B
:20344000DFF824D0FFF79CFEFFF7D4FF07485FF0E021C1F8080D00200146FFF771FF00F01E
:203460006BF87047413400080040002000300008064901F1000252F8202001F1100131F824
:20348000100032F8143F4340138070470800002000B50020FFF7ECFF0120FFF7E9FF0220D3
:2034A000FFF7E6FF0320FFF7E3FF00BD43F61C02C4F2020211B11168014301E011688143CB
:2034C0001160704704480168002908BF70470168491E01607047C0460000002031F0604198
:2034E00031F07F0108435FF0E021C1F8080D70470249086008680028FCD17047000000201C
:123500005FF000605FF44051FFF7E8BF0320029070471D
:06351400FFF7D6BF70476F
:02351C00FEE7C8
:02352000FEE7C4
:02352400FEE7C0
:02352800FEE7BC
:02352C007047E6
:023530007047E2
:023534007047DE
:02353800FEE7AC
:20353C00010000000000002050310008300000000000000000000000000000000000000095
:040000050800343D7E
:00000001FF
